{
  "contractName": "CompanyContract",
  "abi": [
    {
      "anonymous": false,
      "inputs": [
        {
          "indexed": false,
          "internalType": "address",
          "name": "company",
          "type": "address"
        },
        {
          "indexed": false,
          "internalType": "address",
          "name": "donor",
          "type": "address"
        },
        {
          "indexed": false,
          "internalType": "uint256",
          "name": "amount",
          "type": "uint256"
        }
      ],
      "name": "DonationReceived",
      "type": "event"
    },
    {
      "anonymous": false,
      "inputs": [
        {
          "indexed": false,
          "internalType": "address",
          "name": "company",
          "type": "address"
        },
        {
          "indexed": false,
          "internalType": "address",
          "name": "from",
          "type": "address"
        },
        {
          "indexed": false,
          "internalType": "address",
          "name": "to",
          "type": "address"
        },
        {
          "indexed": false,
          "internalType": "uint256",
          "name": "amount",
          "type": "uint256"
        }
      ],
      "name": "TransactionMade",
      "type": "event"
    },
    {
      "anonymous": false,
      "inputs": [
        {
          "indexed": false,
          "internalType": "address",
          "name": "user",
          "type": "address"
        }
      ],
      "name": "UserLoggedIn",
      "type": "event"
    },
    {
      "anonymous": false,
      "inputs": [
        {
          "indexed": false,
          "internalType": "address",
          "name": "user",
          "type": "address"
        }
      ],
      "name": "UserLoggedOut",
      "type": "event"
    },
    {
      "anonymous": false,
      "inputs": [
        {
          "indexed": false,
          "internalType": "address",
          "name": "user",
          "type": "address"
        }
      ],
      "name": "UserRegistered",
      "type": "event"
    },
    {
      "inputs": [
        {
          "internalType": "address",
          "name": "",
          "type": "address"
        },
        {
          "internalType": "uint256",
          "name": "",
          "type": "uint256"
        }
      ],
      "name": "donations",
      "outputs": [
        {
          "internalType": "address",
          "name": "donor",
          "type": "address"
        },
        {
          "internalType": "uint256",
          "name": "amount",
          "type": "uint256"
        }
      ],
      "stateMutability": "view",
      "type": "function",
      "constant": true
    },
    {
      "inputs": [
        {
          "internalType": "address",
          "name": "",
          "type": "address"
        },
        {
          "internalType": "uint256",
          "name": "",
          "type": "uint256"
        }
      ],
      "name": "transactions",
      "outputs": [
        {
          "internalType": "address",
          "name": "from",
          "type": "address"
        },
        {
          "internalType": "address",
          "name": "to",
          "type": "address"
        },
        {
          "internalType": "uint256",
          "name": "amount",
          "type": "uint256"
        }
      ],
      "stateMutability": "view",
      "type": "function",
      "constant": true
    },
    {
      "inputs": [
        {
          "internalType": "address",
          "name": "",
          "type": "address"
        }
      ],
      "name": "users",
      "outputs": [
        {
          "internalType": "bytes32",
          "name": "name",
          "type": "bytes32"
        },
        {
          "internalType": "bytes32",
          "name": "email",
          "type": "bytes32"
        },
        {
          "internalType": "bytes32",
          "name": "password",
          "type": "bytes32"
        },
        {
          "internalType": "bool",
          "name": "isLoggedIn",
          "type": "bool"
        }
      ],
      "stateMutability": "view",
      "type": "function",
      "constant": true
    },
    {
      "inputs": [
        {
          "internalType": "bytes32",
          "name": "_name",
          "type": "bytes32"
        },
        {
          "internalType": "bytes32",
          "name": "_email",
          "type": "bytes32"
        },
        {
          "internalType": "bytes32",
          "name": "_password",
          "type": "bytes32"
        }
      ],
      "name": "register",
      "outputs": [],
      "stateMutability": "nonpayable",
      "type": "function"
    },
    {
      "inputs": [
        {
          "internalType": "bytes32",
          "name": "_email",
          "type": "bytes32"
        },
        {
          "internalType": "bytes32",
          "name": "_password",
          "type": "bytes32"
        }
      ],
      "name": "login",
      "outputs": [],
      "stateMutability": "nonpayable",
      "type": "function"
    },
    {
      "inputs": [],
      "name": "logout",
      "outputs": [],
      "stateMutability": "nonpayable",
      "type": "function"
    },
    {
      "inputs": [],
      "name": "receiveDonation",
      "outputs": [],
      "stateMutability": "payable",
      "type": "function",
      "payable": true
    },
    {
      "inputs": [
        {
          "internalType": "address",
          "name": "_to",
          "type": "address"
        }
      ],
      "name": "makeTransaction",
      "outputs": [],
      "stateMutability": "payable",
      "type": "function",
      "payable": true
    },
    {
      "inputs": [
        {
          "internalType": "address",
          "name": "_userAddress",
          "type": "address"
        }
      ],
      "name": "getDonations",
      "outputs": [
        {
          "components": [
            {
              "internalType": "address",
              "name": "donor",
              "type": "address"
            },
            {
              "internalType": "uint256",
              "name": "amount",
              "type": "uint256"
            }
          ],
          "internalType": "struct CompanyContract.Donation[]",
          "name": "",
          "type": "tuple[]"
        }
      ],
      "stateMutability": "view",
      "type": "function",
      "constant": true
    },
    {
      "inputs": [
        {
          "internalType": "address",
          "name": "_userAddress",
          "type": "address"
        }
      ],
      "name": "getTransactions",
      "outputs": [
        {
          "components": [
            {
              "internalType": "address",
              "name": "from",
              "type": "address"
            },
            {
              "internalType": "address",
              "name": "to",
              "type": "address"
            },
            {
              "internalType": "uint256",
              "name": "amount",
              "type": "uint256"
            }
          ],
          "internalType": "struct CompanyContract.Transaction[]",
          "name": "",
          "type": "tuple[]"
        }
      ],
      "stateMutability": "view",
      "type": "function",
      "constant": true
    }
  ],
  "bytecode": "0x608060405234801561001057600080fd5b50611785806100206000396000f3fe6080604052600436106100915760003560e01c806345d3292b1161005957806345d3292b146101825780634da274fd1461018c578063635a9f22146101b557806395086ed1146101de578063a87430ba1461021c57610091565b80630f8cda201461009657806314538128146100d35780631910bdc2146101125780631f3c99c31461014f57806329bf041f14610166575b600080fd5b3480156100a257600080fd5b506100bd60048036038101906100b89190610ea8565b61025c565b6040516100ca9190610fee565b60405180910390f35b3480156100df57600080fd5b506100fa60048036038101906100f5919061103c565b6103b0565b6040516101099392919061109a565b60405180910390f35b34801561011e57600080fd5b5061013960048036038101906101349190610ea8565b610437565b60405161014691906111af565b60405180910390f35b34801561015b57600080fd5b50610164610535565b005b610180600480360381019061017b9190610ea8565b61065d565b005b61018a6108b3565b005b34801561019857600080fd5b506101b360048036038101906101ae9190611207565b610a1f565b005b3480156101c157600080fd5b506101dc60048036038101906101d7919061125a565b610b88565b005b3480156101ea57600080fd5b506102056004803603810190610200919061103c565b610da7565b60405161021392919061129a565b60405180910390f35b34801561022857600080fd5b50610243600480360381019061023e9190610ea8565b610e08565b60405161025394939291906112ed565b60405180910390f35b6060600260008373ffffffffffffffffffffffffffffffffffffffff1673ffffffffffffffffffffffffffffffffffffffff168152602001908152602001600020805480602002602001604051908101604052809291908181526020016000905b828210156103a557838290600052602060002090600302016040518060600160405290816000820160009054906101000a900473ffffffffffffffffffffffffffffffffffffffff1673ffffffffffffffffffffffffffffffffffffffff1673ffffffffffffffffffffffffffffffffffffffff1681526020016001820160009054906101000a900473ffffffffffffffffffffffffffffffffffffffff1673ffffffffffffffffffffffffffffffffffffffff1673ffffffffffffffffffffffffffffffffffffffff168152602001600282015481525050815260200190600101906102bd565b505050509050919050565b600260205281600052604060002081815481106103cc57600080fd5b9060005260206000209060030201600091509150508060000160009054906101000a900473ffffffffffffffffffffffffffffffffffffffff16908060010160009054906101000a900473ffffffffffffffffffffffffffffffffffffffff16908060020154905083565b6060600160008373ffffffffffffffffffffffffffffffffffffffff1673ffffffffffffffffffffffffffffffffffffffff168152602001908152602001600020805480602002602001604051908101604052809291908181526020016000905b8282101561052a57838290600052602060002090600202016040518060400160405290816000820160009054906101000a900473ffffffffffffffffffffffffffffffffffffffff1673ffffffffffffffffffffffffffffffffffffffff1673ffffffffffffffffffffffffffffffffffffffff16815260200160018201548152505081526020019060010190610498565b505050509050919050565b600115156000803373ffffffffffffffffffffffffffffffffffffffff1673ffffffffffffffffffffffffffffffffffffffff16815260200190815260200160002060030160009054906101000a900460ff161515146105ca576040517f08c379a00000000000000000000000000000000000000000000000000000000081526004016105c19061138f565b60405180910390fd5b60008060003373ffffffffffffffffffffffffffffffffffffffff1673ffffffffffffffffffffffffffffffffffffffff16815260200190815260200160002060030160006101000a81548160ff0219169083151502179055507fc6ef449222bae3754898fc5fa944d52dfc53c0ee1fdd7d733fbb422ac5e2b8c83360405161065391906113af565b60405180910390a1565b600034116106a0576040517f08c379a00000000000000000000000000000000000000000000000000000000081526004016106979061143c565b60405180910390fd5b60008060008373ffffffffffffffffffffffffffffffffffffffff1673ffffffffffffffffffffffffffffffffffffffff1681526020019081526020016000206000015403610724576040517f08c379a000000000000000000000000000000000000000000000000000000000815260040161071b906114a8565b60405180910390fd5b600060405180606001604052803373ffffffffffffffffffffffffffffffffffffffff1681526020018373ffffffffffffffffffffffffffffffffffffffff168152602001348152509050600260003373ffffffffffffffffffffffffffffffffffffffff1673ffffffffffffffffffffffffffffffffffffffff16815260200190815260200160002081908060018154018082558091505060019003906000526020600020906003020160009091909190915060008201518160000160006101000a81548173ffffffffffffffffffffffffffffffffffffffff021916908373ffffffffffffffffffffffffffffffffffffffff16021790555060208201518160010160006101000a81548173ffffffffffffffffffffffffffffffffffffffff021916908373ffffffffffffffffffffffffffffffffffffffff1602179055506040820151816002015550507f0d6b4b2af21320cfe6832aeb107e14922ff72c98db0180dcd53ebd65c8594e7b333384346040516108a794939291906114c8565b60405180910390a15050565b600034116108f6576040517f08c379a00000000000000000000000000000000000000000000000000000000081526004016108ed9061157f565b60405180910390fd5b600060405180604001604052803373ffffffffffffffffffffffffffffffffffffffff168152602001348152509050600160003373ffffffffffffffffffffffffffffffffffffffff1673ffffffffffffffffffffffffffffffffffffffff16815260200190815260200160002081908060018154018082558091505060019003906000526020600020906002020160009091909190915060008201518160000160006101000a81548173ffffffffffffffffffffffffffffffffffffffff021916908373ffffffffffffffffffffffffffffffffffffffff1602179055506020820151816001015550507f509fb5d764cf5e98b9f02a3d86350f8085cedb516140098d2d6fc2eb6256ac24333334604051610a149392919061109a565b60405180910390a150565b60008060003373ffffffffffffffffffffffffffffffffffffffff1673ffffffffffffffffffffffffffffffffffffffff1681526020019081526020016000206000015414610aa3576040517f08c379a0000000000000000000000000000000000000000000000000000000008152600401610a9a906115eb565b60405180910390fd5b60006040518060800160405280858152602001848152602001838152602001600015158152509050806000803373ffffffffffffffffffffffffffffffffffffffff1673ffffffffffffffffffffffffffffffffffffffff16815260200190815260200160002060008201518160000155602082015181600101556040820151816002015560608201518160030160006101000a81548160ff0219169083151502179055509050507f54db7a5cb4735e1aac1f53db512d3390390bb6637bd30ad4bf9fc98667d9b9b933604051610b7a91906113af565b60405180910390a150505050565b60008060003373ffffffffffffffffffffffffffffffffffffffff1673ffffffffffffffffffffffffffffffffffffffff1681526020019081526020016000206000015403610c0c576040517f08c379a0000000000000000000000000000000000000000000000000000000008152600401610c0390611657565b60405180910390fd5b816000803373ffffffffffffffffffffffffffffffffffffffff1673ffffffffffffffffffffffffffffffffffffffff1681526020019081526020016000206001015414610c8f576040517f08c379a0000000000000000000000000000000000000000000000000000000008152600401610c86906116c3565b60405180910390fd5b806000803373ffffffffffffffffffffffffffffffffffffffff1673ffffffffffffffffffffffffffffffffffffffff1681526020019081526020016000206002015414610d12576040517f08c379a0000000000000000000000000000000000000000000000000000000008152600401610d099061172f565b60405180910390fd5b60016000803373ffffffffffffffffffffffffffffffffffffffff1673ffffffffffffffffffffffffffffffffffffffff16815260200190815260200160002060030160006101000a81548160ff0219169083151502179055507f8d15fde878cff665868ed7579eb5081db6508d4249df61dcdd7699a5301d987433604051610d9b91906113af565b60405180910390a15050565b60016020528160005260406000208181548110610dc357600080fd5b9060005260206000209060020201600091509150508060000160009054906101000a900473ffffffffffffffffffffffffffffffffffffffff16908060010154905082565b60006020528060005260406000206000915090508060000154908060010154908060020154908060030160009054906101000a900460ff16905084565b600080fd5b600073ffffffffffffffffffffffffffffffffffffffff82169050919050565b6000610e7582610e4a565b9050919050565b610e8581610e6a565b8114610e9057600080fd5b50565b600081359050610ea281610e7c565b92915050565b600060208284031215610ebe57610ebd610e45565b5b6000610ecc84828501610e93565b91505092915050565b600081519050919050565b600082825260208201905092915050565b6000819050602082019050919050565b610f0a81610e6a565b82525050565b6000819050919050565b610f2381610f10565b82525050565b606082016000820151610f3f6000850182610f01565b506020820151610f526020850182610f01565b506040820151610f656040850182610f1a565b50505050565b6000610f778383610f29565b60608301905092915050565b6000602082019050919050565b6000610f9b82610ed5565b610fa58185610ee0565b9350610fb083610ef1565b8060005b83811015610fe1578151610fc88882610f6b565b9750610fd383610f83565b925050600181019050610fb4565b5085935050505092915050565b600060208201905081810360008301526110088184610f90565b905092915050565b61101981610f10565b811461102457600080fd5b50565b60008135905061103681611010565b92915050565b6000806040838503121561105357611052610e45565b5b600061106185828601610e93565b925050602061107285828601611027565b9150509250929050565b61108581610e6a565b82525050565b61109481610f10565b82525050565b60006060820190506110af600083018661107c565b6110bc602083018561107c565b6110c9604083018461108b565b949350505050565b600081519050919050565b600082825260208201905092915050565b6000819050602082019050919050565b6040820160008201516111136000850182610f01565b5060208201516111266020850182610f1a565b50505050565b600061113883836110fd565b60408301905092915050565b6000602082019050919050565b600061115c826110d1565b61116681856110dc565b9350611171836110ed565b8060005b838110156111a2578151611189888261112c565b975061119483611144565b925050600181019050611175565b5085935050505092915050565b600060208201905081810360008301526111c98184611151565b905092915050565b6000819050919050565b6111e4816111d1565b81146111ef57600080fd5b50565b600081359050611201816111db565b92915050565b6000806000606084860312156112205761121f610e45565b5b600061122e868287016111f2565b935050602061123f868287016111f2565b9250506040611250868287016111f2565b9150509250925092565b6000806040838503121561127157611270610e45565b5b600061127f858286016111f2565b9250506020611290858286016111f2565b9150509250929050565b60006040820190506112af600083018561107c565b6112bc602083018461108b565b9392505050565b6112cc816111d1565b82525050565b60008115159050919050565b6112e7816112d2565b82525050565b600060808201905061130260008301876112c3565b61130f60208301866112c3565b61131c60408301856112c3565b61132960608301846112de565b95945050505050565b600082825260208201905092915050565b7f55736572206e6f74206c6f6767656420696e0000000000000000000000000000600082015250565b6000611379601283611332565b915061138482611343565b602082019050919050565b600060208201905081810360008301526113a88161136c565b9050919050565b60006020820190506113c4600083018461107c565b92915050565b7f5472616e73616374696f6e20616d6f756e74206d75737420626520677265617460008201527f6572207468616e207a65726f0000000000000000000000000000000000000000602082015250565b6000611426602c83611332565b9150611431826113ca565b604082019050919050565b6000602082019050818103600083015261145581611419565b9050919050565b7f526563697069656e74206e6f7420726567697374657265640000000000000000600082015250565b6000611492601883611332565b915061149d8261145c565b602082019050919050565b600060208201905081810360008301526114c181611485565b9050919050565b60006080820190506114dd600083018761107c565b6114ea602083018661107c565b6114f7604083018561107c565b611504606083018461108b565b95945050505050565b7f446f6e6174696f6e20616d6f756e74206d75737420626520677265617465722060008201527f7468616e207a65726f0000000000000000000000000000000000000000000000602082015250565b6000611569602983611332565b91506115748261150d565b604082019050919050565b600060208201905081810360008301526115988161155c565b9050919050565b7f5573657220616c72656164792072656769737465726564000000000000000000600082015250565b60006115d5601783611332565b91506115e08261159f565b602082019050919050565b60006020820190508181036000830152611604816115c8565b9050919050565b7f55736572206e6f74207265676973746572656400000000000000000000000000600082015250565b6000611641601383611332565b915061164c8261160b565b602082019050919050565b6000602082019050818103600083015261167081611634565b9050919050565b7f496e636f727265637420656d61696c0000000000000000000000000000000000600082015250565b60006116ad600f83611332565b91506116b882611677565b602082019050919050565b600060208201905081810360008301526116dc816116a0565b9050919050565b7f496e636f72726563742070617373776f72640000000000000000000000000000600082015250565b6000611719601283611332565b9150611724826116e3565b602082019050919050565b600060208201905081810360008301526117488161170c565b905091905056fea2646970667358221220fad171f0a780966f9c8e52005dcddb8eb4588a8038ef898ca93e796f4fcff44964736f6c63430008120033",
  "immutableReferences": {},
  "source": "// SPDX-License-Identifier: GPL-3.0\r\npragma solidity >=0.7.0 <0.9.0;\r\n\r\ncontract CompanyContract {\r\n    // Declare state variables\r\n    struct User {\r\n        bytes32 name;\r\n        bytes32 email;\r\n        bytes32 password;\r\n        bool isLoggedIn;\r\n    }\r\n    struct Donation {\r\n        address donor;\r\n        uint256 amount;\r\n    }\r\n    struct Transaction {\r\n        address from;\r\n        address to;\r\n        uint256 amount;\r\n    }\r\n    mapping(address => User) public users;\r\n    mapping(address => Donation[]) public donations;\r\n    mapping(address => Transaction[]) public transactions;\r\n\r\n    // Events\r\n    event UserRegistered(address user);\r\n    event UserLoggedIn(address user);\r\n    event UserLoggedOut(address user);\r\n    event DonationReceived(address company, address donor, uint256 amount);\r\n    event TransactionMade(address company, address from, address to, uint256 amount);\r\n\r\n    // Function to register a new user\r\n    function register(bytes32 _name, bytes32 _email, bytes32 _password) public {\r\n        require(users[msg.sender].name == \"\", \"User already registered\");\r\n        User memory newUser = User(_name, _email, _password, false);\r\n        users[msg.sender] = newUser;\r\n        emit UserRegistered(msg.sender);\r\n    }\r\n\r\n    // Function to log in a user\r\n    function login(bytes32 _email, bytes32 _password) public {\r\n        require(users[msg.sender].name != \"\", \"User not registered\");\r\n        require(users[msg.sender].email == _email, \"Incorrect email\");\r\n        require(users[msg.sender].password == _password, \"Incorrect password\");\r\n        users[msg.sender].isLoggedIn = true;\r\n        emit UserLoggedIn(msg.sender);\r\n    }\r\n\r\n    // Function to log out a user\r\n    function logout() public {\r\n        require(users[msg.sender].isLoggedIn == true, \"User not logged in\");\r\n        users[msg.sender].isLoggedIn = false;\r\n        emit UserLoggedOut(msg.sender);\r\n    }\r\n\r\n    // Function to receive a donation\r\n    function receiveDonation() public payable {\r\n        require(msg.value > 0, \"Donation amount must be greater than zero\");\r\n        Donation memory newDonation = Donation(msg.sender, msg.value);\r\n        donations[msg.sender].push(newDonation);\r\n        emit DonationReceived(msg.sender, msg.sender, msg.value);\r\n    }\r\n\r\n    // Function to make a transaction\r\n    function makeTransaction(address _to) public payable {\r\n        require(msg.value > 0, \"Transaction amount must be greater than zero\");\r\n        require(users[_to].name != \"\", \"Recipient not registered\");\r\n        Transaction memory newTransaction = Transaction(msg.sender, _to, msg.value);\r\n        transactions[msg.sender].push(newTransaction);\r\n        emit TransactionMade(msg.sender, msg.sender, _to, msg.value);\r\n    }\r\n\r\n    // Function to get a user's donations\r\n    function getDonations(address _userAddress) public view returns (Donation[] memory) {\r\n        return donations[_userAddress];\r\n    }\r\n\r\n    // Function to get a user's transactions\r\n    function getTransactions(address _userAddress) public view returns (Transaction[] memory) {\r\n        return transactions[_userAddress];\r\n    }\r\n}",
  "sourcePath": "C:\\Users\\Jason\\Documents\\Assignments\\bcAssignment\\backend\\contracts\\6_CompanyContract.sol",
  "compiler": {
    "name": "solc",
    "version": "0.8.18+commit.87f61d96.Emscripten.clang"
  },
  "schemaVersion": "3.4.12",
  "updatedAt": "2023-05-09T06:23:01.543Z",
  "networkType": "ethereum",
  "devdoc": {
    "kind": "dev",
    "methods": {},
    "version": 1
  },
  "userdoc": {
    "kind": "user",
    "methods": {},
    "version": 1
  }
}