{
  "contractName": "SubscriptionContract",
  "abi": [
    {
      "inputs": [],
      "stateMutability": "nonpayable",
      "type": "constructor"
    },
    {
      "inputs": [
        {
          "internalType": "address",
          "name": "",
          "type": "address"
        },
        {
          "internalType": "bytes32",
          "name": "",
          "type": "bytes32"
        },
        {
          "internalType": "uint256",
          "name": "",
          "type": "uint256"
        }
      ],
      "name": "eventInfo",
      "outputs": [
        {
          "internalType": "uint256",
          "name": "",
          "type": "uint256"
        }
      ],
      "stateMutability": "view",
      "type": "function",
      "constant": true
    },
    {
      "inputs": [],
      "name": "subscribedContract",
      "outputs": [
        {
          "internalType": "address",
          "name": "",
          "type": "address"
        }
      ],
      "stateMutability": "view",
      "type": "function",
      "constant": true
    },
    {
      "inputs": [
        {
          "internalType": "address",
          "name": "",
          "type": "address"
        }
      ],
      "name": "subscriptions",
      "outputs": [
        {
          "internalType": "bool",
          "name": "",
          "type": "bool"
        }
      ],
      "stateMutability": "view",
      "type": "function",
      "constant": true
    },
    {
      "inputs": [
        {
          "internalType": "address",
          "name": "",
          "type": "address"
        }
      ],
      "name": "userIds",
      "outputs": [
        {
          "internalType": "bytes32",
          "name": "",
          "type": "bytes32"
        }
      ],
      "stateMutability": "view",
      "type": "function",
      "constant": true
    },
    {
      "inputs": [
        {
          "internalType": "bytes32",
          "name": "_userId",
          "type": "bytes32"
        }
      ],
      "name": "setUserId",
      "outputs": [],
      "stateMutability": "nonpayable",
      "type": "function"
    },
    {
      "inputs": [],
      "name": "subscribe",
      "outputs": [],
      "stateMutability": "nonpayable",
      "type": "function"
    },
    {
      "inputs": [],
      "name": "unsubscribe",
      "outputs": [],
      "stateMutability": "nonpayable",
      "type": "function"
    },
    {
      "inputs": [
        {
          "internalType": "bytes32",
          "name": "_eventName",
          "type": "bytes32"
        }
      ],
      "name": "getEventInfo",
      "outputs": [
        {
          "internalType": "uint256[]",
          "name": "",
          "type": "uint256[]"
        }
      ],
      "stateMutability": "view",
      "type": "function",
      "constant": true
    },
    {
      "inputs": [
        {
          "internalType": "bytes32",
          "name": "_eventName",
          "type": "bytes32"
        },
        {
          "internalType": "uint256",
          "name": "_eventData",
          "type": "uint256"
        }
      ],
      "name": "updateEventInfo",
      "outputs": [],
      "stateMutability": "nonpayable",
      "type": "function"
    }
  ],
  "bytecode": "0x608060405234801561001057600080fd5b50336000806101000a81548173ffffffffffffffffffffffffffffffffffffffff021916908373ffffffffffffffffffffffffffffffffffffffff160217905550610b2d806100606000396000f3fe608060405234801561001057600080fd5b50600436106100935760003560e01c8063cf80c14c11610066578063cf80c14c1461010c578063eee81ad11461013c578063f046395a14610158578063f765b6b114610188578063fcae4484146101b857610093565b80634081db511461009857806366c23155146100c85780638f449a05146100e657806399990e2a146100f0575b600080fd5b6100b260048036038101906100ad9190610684565b6101c2565b6040516100bf91906106ca565b60405180910390f35b6100d06101da565b6040516100dd91906106f4565b60405180910390f35b6100ee6101fe565b005b61010a60048036038101906101059190610771565b610258565b005b610126600480360381019061012191906107b1565b6103ee565b6040516101339190610813565b60405180910390f35b6101566004803603810190610151919061082e565b61042c565b005b610172600480360381019061016d9190610684565b610473565b60405161017f9190610876565b60405180910390f35b6101a2600480360381019061019d919061082e565b610493565b6040516101af919061094f565b60405180910390f35b6101c06105c7565b005b60016020528060005260406000206000915090505481565b60008054906101000a900473ffffffffffffffffffffffffffffffffffffffff1681565b6001600260003373ffffffffffffffffffffffffffffffffffffffff1673ffffffffffffffffffffffffffffffffffffffff16815260200190815260200160002060006101000a81548160ff021916908315150217905550565b60008054906101000a900473ffffffffffffffffffffffffffffffffffffffff1673ffffffffffffffffffffffffffffffffffffffff163373ffffffffffffffffffffffffffffffffffffffff16146102e6576040517f08c379a00000000000000000000000000000000000000000000000000000000081526004016102dd906109f4565b60405180910390fd5b60005b740100000000000000000000000000000000000000008110156103e9576000819050600260008273ffffffffffffffffffffffffffffffffffffffff1673ffffffffffffffffffffffffffffffffffffffff16815260200190815260200160002060009054906101000a900460ff16156103d557600360008273ffffffffffffffffffffffffffffffffffffffff1673ffffffffffffffffffffffffffffffffffffffff16815260200190815260200160002060008581526020019081526020016000208390806001815401808255809150506001900390600052602060002001600090919091909150555b5080806103e190610a43565b9150506102e9565b505050565b6003602052826000526040600020602052816000526040600020818154811061041657600080fd5b9060005260206000200160009250925050505481565b80600160003373ffffffffffffffffffffffffffffffffffffffff1673ffffffffffffffffffffffffffffffffffffffff1681526020019081526020016000208190555050565b60026020528060005260406000206000915054906101000a900460ff1681565b6060600260003373ffffffffffffffffffffffffffffffffffffffff1673ffffffffffffffffffffffffffffffffffffffff16815260200190815260200160002060009054906101000a900460ff16610521576040517f08c379a000000000000000000000000000000000000000000000000000000000815260040161051890610ad7565b60405180910390fd5b600360003373ffffffffffffffffffffffffffffffffffffffff1673ffffffffffffffffffffffffffffffffffffffff16815260200190815260200160002060008381526020019081526020016000208054806020026020016040519081016040528092919081815260200182805480156105bb57602002820191906000526020600020905b8154815260200190600101908083116105a7575b50505050509050919050565b6000600260003373ffffffffffffffffffffffffffffffffffffffff1673ffffffffffffffffffffffffffffffffffffffff16815260200190815260200160002060006101000a81548160ff021916908315150217905550565b600080fd5b600073ffffffffffffffffffffffffffffffffffffffff82169050919050565b600061065182610626565b9050919050565b61066181610646565b811461066c57600080fd5b50565b60008135905061067e81610658565b92915050565b60006020828403121561069a57610699610621565b5b60006106a88482850161066f565b91505092915050565b6000819050919050565b6106c4816106b1565b82525050565b60006020820190506106df60008301846106bb565b92915050565b6106ee81610646565b82525050565b600060208201905061070960008301846106e5565b92915050565b610718816106b1565b811461072357600080fd5b50565b6000813590506107358161070f565b92915050565b6000819050919050565b61074e8161073b565b811461075957600080fd5b50565b60008135905061076b81610745565b92915050565b6000806040838503121561078857610787610621565b5b600061079685828601610726565b92505060206107a78582860161075c565b9150509250929050565b6000806000606084860312156107ca576107c9610621565b5b60006107d88682870161066f565b93505060206107e986828701610726565b92505060406107fa8682870161075c565b9150509250925092565b61080d8161073b565b82525050565b60006020820190506108286000830184610804565b92915050565b60006020828403121561084457610843610621565b5b600061085284828501610726565b91505092915050565b60008115159050919050565b6108708161085b565b82525050565b600060208201905061088b6000830184610867565b92915050565b600081519050919050565b600082825260208201905092915050565b6000819050602082019050919050565b6108c68161073b565b82525050565b60006108d883836108bd565b60208301905092915050565b6000602082019050919050565b60006108fc82610891565b610906818561089c565b9350610911836108ad565b8060005b8381101561094257815161092988826108cc565b9750610934836108e4565b925050600181019050610915565b5085935050505092915050565b6000602082019050818103600083015261096981846108f1565b905092915050565b600082825260208201905092915050565b7f4f6e6c7920746865207375627363726962656420636f6e74726163742063616e60008201527f20757064617465206576656e7420696e666f2e00000000000000000000000000602082015250565b60006109de603383610971565b91506109e982610982565b604082019050919050565b60006020820190508181036000830152610a0d816109d1565b9050919050565b7f4e487b7100000000000000000000000000000000000000000000000000000000600052601160045260246000fd5b6000610a4e8261073b565b91507fffffffffffffffffffffffffffffffffffffffffffffffffffffffffffffffff8203610a8057610a7f610a14565b5b600182019050919050565b7f55736572206973206e6f7420737562736372696265642e000000000000000000600082015250565b6000610ac1601783610971565b9150610acc82610a8b565b602082019050919050565b60006020820190508181036000830152610af081610ab4565b905091905056fea26469706673582212200978a7c7a01f9781cfbadf66b71cf25016325e535a9a242f6e5f386443e8937064736f6c63430008120033",
  "immutableReferences": {},
  "source": "\r\n// SPDX-License-Identifier: GPL-3.0\r\npragma solidity ^0.8.0;\r\n\r\ncontract SubscriptionContract {\r\n    address public subscribedContract;\r\n    mapping(address => bytes32) public userIds; // mapping the ether address to user id \r\n    mapping(address => bool) public subscriptions; //mapping the acc address \r\n    mapping(address => mapping(bytes32 => uint256[])) public eventInfo;\r\n\r\n    constructor() {\r\n        subscribedContract = msg.sender;\r\n    }\r\n\r\n    function setUserId(bytes32 _userId) public {\r\n        userIds[msg.sender] = _userId;\r\n    }\r\n\r\n    function subscribe() public {\r\n        subscriptions[msg.sender] = true;\r\n    }\r\n\r\n    function unsubscribe() public {\r\n        subscriptions[msg.sender] = false;\r\n    }\r\n\r\n    function getEventInfo(bytes32 _eventName) public view returns (uint256[] memory) {\r\n        require(subscriptions[msg.sender], \"User is not subscribed.\");\r\n        return eventInfo[msg.sender][_eventName];\r\n    }\r\n\r\n    function updateEventInfo(bytes32 _eventName, uint256 _eventData) public {\r\n        require(msg.sender == subscribedContract, \"Only the subscribed contract can update event info.\");\r\n        for (uint i = 0; i < 2**160; i++) {\r\n            address userAddr = address(uint160(i));\r\n            if (subscriptions[userAddr]) {\r\n                eventInfo[userAddr][_eventName].push(_eventData);\r\n            }\r\n        }\r\n    }\r\n}\r\n",
  "sourcePath": "C:\\Users\\Jason\\Documents\\Assignments\\bcAssignment\\backend\\contracts\\SubscriptionContract.sol",
  "compiler": {
    "name": "solc",
    "version": "0.8.18+commit.87f61d96.Emscripten.clang"
  },
  "schemaVersion": "3.4.12",
  "updatedAt": "2023-05-01T22:03:41.455Z",
  "networkType": "ethereum",
  "devdoc": {
    "kind": "dev",
    "methods": {},
    "version": 1
  },
  "userdoc": {
    "kind": "user",
    "methods": {},
    "version": 1
  }
}