{
  "contractName": "Subscription",
  "abi": [
    {
      "inputs": [],
      "stateMutability": "nonpayable",
      "type": "constructor"
    },
    {
      "inputs": [
        {
          "internalType": "address",
          "name": "",
          "type": "address"
        },
        {
          "internalType": "uint256",
          "name": "",
          "type": "uint256"
        }
      ],
      "name": "contractEvents",
      "outputs": [
        {
          "internalType": "string",
          "name": "eventName",
          "type": "string"
        }
      ],
      "stateMutability": "view",
      "type": "function",
      "constant": true
    },
    {
      "inputs": [
        {
          "internalType": "address",
          "name": "",
          "type": "address"
        },
        {
          "internalType": "uint256",
          "name": "",
          "type": "uint256"
        }
      ],
      "name": "subscriptions",
      "outputs": [
        {
          "internalType": "address",
          "name": "",
          "type": "address"
        }
      ],
      "stateMutability": "view",
      "type": "function",
      "constant": true
    },
    {
      "inputs": [
        {
          "internalType": "address",
          "name": "",
          "type": "address"
        }
      ],
      "name": "validContracts",
      "outputs": [
        {
          "internalType": "bool",
          "name": "",
          "type": "bool"
        }
      ],
      "stateMutability": "view",
      "type": "function",
      "constant": true
    },
    {
      "inputs": [],
      "name": "getOwner",
      "outputs": [
        {
          "internalType": "address",
          "name": "",
          "type": "address"
        }
      ],
      "stateMutability": "view",
      "type": "function",
      "constant": true
    },
    {
      "inputs": [
        {
          "internalType": "address",
          "name": "newOwnerAddress",
          "type": "address"
        }
      ],
      "name": "changeOwner",
      "outputs": [],
      "stateMutability": "nonpayable",
      "type": "function"
    },
    {
      "inputs": [
        {
          "internalType": "address",
          "name": "contractAddress",
          "type": "address"
        }
      ],
      "name": "subscribe",
      "outputs": [],
      "stateMutability": "payable",
      "type": "function",
      "payable": true
    },
    {
      "inputs": [
        {
          "internalType": "address",
          "name": "contractAddress",
          "type": "address"
        }
      ],
      "name": "addContract",
      "outputs": [],
      "stateMutability": "nonpayable",
      "type": "function"
    },
    {
      "inputs": [
        {
          "internalType": "address",
          "name": "contractAddress",
          "type": "address"
        },
        {
          "internalType": "string",
          "name": "eventName",
          "type": "string"
        }
      ],
      "name": "updateContractEvent",
      "outputs": [],
      "stateMutability": "nonpayable",
      "type": "function"
    }
  ],
  "bytecode": "0x608060405234801561001057600080fd5b50336000806101000a81548173ffffffffffffffffffffffffffffffffffffffff021916908373ffffffffffffffffffffffffffffffffffffffff160217905550610ef7806100606000396000f3fe60806040526004361061007b5760003560e01c8063623da3d11161004e578063623da3d11461012b5780636dc2cfd714610168578063893d20e8146101a5578063a6f9dae1146101d05761007b565b8063375ca97d1461008057806341a7726a146100a9578063487f6630146100c55780635f539d6914610102575b600080fd5b34801561008c57600080fd5b506100a760048036038101906100a291906108bf565b6101f9565b005b6100c360048036038101906100be919061091b565b610288565b005b3480156100d157600080fd5b506100ec60048036038101906100e7919061091b565b6103f4565b6040516100f99190610963565b60405180910390f35b34801561010e57600080fd5b506101296004803603810190610124919061091b565b610414565b005b34801561013757600080fd5b50610152600480360381019061014d91906109b4565b6104fe565b60405161015f9190610a03565b60405180910390f35b34801561017457600080fd5b5061018f600480360381019061018a91906109b4565b61054c565b60405161019c9190610a9d565b60405180910390f35b3480156101b157600080fd5b506101ba61060b565b6040516101c79190610a03565b60405180910390f35b3480156101dc57600080fd5b506101f760048036038101906101f2919061091b565b610634565b005b600460008373ffffffffffffffffffffffffffffffffffffffff1673ffffffffffffffffffffffffffffffffffffffff1681526020019081526020016000206040518060200160405280838152509080600181540180825580915050600190039060005260206000200160009091909190915060008201518160000190816102819190610ccb565b5050505050565b338160001515600360008473ffffffffffffffffffffffffffffffffffffffff1673ffffffffffffffffffffffffffffffffffffffff16815260200190815260200160002060008373ffffffffffffffffffffffffffffffffffffffff1673ffffffffffffffffffffffffffffffffffffffff16815260200190815260200160002060009054906101000a900460ff1615151461035a576040517f08c379a000000000000000000000000000000000000000000000000000000000815260040161035190610e0f565b60405180910390fd5b6001600360003373ffffffffffffffffffffffffffffffffffffffff1673ffffffffffffffffffffffffffffffffffffffff16815260200190815260200160002060008573ffffffffffffffffffffffffffffffffffffffff1673ffffffffffffffffffffffffffffffffffffffff16815260200190815260200160002060006101000a81548160ff021916908315150217905550505050565b60016020528060005260406000206000915054906101000a900460ff1681565b3360008054906101000a900473ffffffffffffffffffffffffffffffffffffffff1673ffffffffffffffffffffffffffffffffffffffff168173ffffffffffffffffffffffffffffffffffffffff16146104a3576040517f08c379a000000000000000000000000000000000000000000000000000000000815260040161049a90610ea1565b60405180910390fd5b60018060008473ffffffffffffffffffffffffffffffffffffffff1673ffffffffffffffffffffffffffffffffffffffff16815260200190815260200160002060006101000a81548160ff0219169083151502179055505050565b6002602052816000526040600020818154811061051a57600080fd5b906000526020600020016000915091509054906101000a900473ffffffffffffffffffffffffffffffffffffffff1681565b6004602052816000526040600020818154811061056857600080fd5b906000526020600020016000915091505080600001805461058890610aee565b80601f01602080910402602001604051908101604052809291908181526020018280546105b490610aee565b80156106015780601f106105d657610100808354040283529160200191610601565b820191906000526020600020905b8154815290600101906020018083116105e457829003601f168201915b5050505050905081565b60008060009054906101000a900473ffffffffffffffffffffffffffffffffffffffff16905090565b3360008054906101000a900473ffffffffffffffffffffffffffffffffffffffff1673ffffffffffffffffffffffffffffffffffffffff168173ffffffffffffffffffffffffffffffffffffffff16146106c3576040517f08c379a00000000000000000000000000000000000000000000000000000000081526004016106ba90610ea1565b60405180910390fd5b816000806101000a81548173ffffffffffffffffffffffffffffffffffffffff021916908373ffffffffffffffffffffffffffffffffffffffff1602179055505050565b6000604051905090565b600080fd5b600080fd5b600073ffffffffffffffffffffffffffffffffffffffff82169050919050565b60006107468261071b565b9050919050565b6107568161073b565b811461076157600080fd5b50565b6000813590506107738161074d565b92915050565b600080fd5b600080fd5b6000601f19601f8301169050919050565b7f4e487b7100000000000000000000000000000000000000000000000000000000600052604160045260246000fd5b6107cc82610783565b810181811067ffffffffffffffff821117156107eb576107ea610794565b5b80604052505050565b60006107fe610707565b905061080a82826107c3565b919050565b600067ffffffffffffffff82111561082a57610829610794565b5b61083382610783565b9050602081019050919050565b82818337600083830152505050565b600061086261085d8461080f565b6107f4565b90508281526020810184848401111561087e5761087d61077e565b5b610889848285610840565b509392505050565b600082601f8301126108a6576108a5610779565b5b81356108b684826020860161084f565b91505092915050565b600080604083850312156108d6576108d5610711565b5b60006108e485828601610764565b925050602083013567ffffffffffffffff81111561090557610904610716565b5b61091185828601610891565b9150509250929050565b60006020828403121561093157610930610711565b5b600061093f84828501610764565b91505092915050565b60008115159050919050565b61095d81610948565b82525050565b60006020820190506109786000830184610954565b92915050565b6000819050919050565b6109918161097e565b811461099c57600080fd5b50565b6000813590506109ae81610988565b92915050565b600080604083850312156109cb576109ca610711565b5b60006109d985828601610764565b92505060206109ea8582860161099f565b9150509250929050565b6109fd8161073b565b82525050565b6000602082019050610a1860008301846109f4565b92915050565b600081519050919050565b600082825260208201905092915050565b60005b83811015610a58578082015181840152602081019050610a3d565b60008484015250505050565b6000610a6f82610a1e565b610a798185610a29565b9350610a89818560208601610a3a565b610a9281610783565b840191505092915050565b60006020820190508181036000830152610ab78184610a64565b905092915050565b7f4e487b7100000000000000000000000000000000000000000000000000000000600052602260045260246000fd5b60006002820490506001821680610b0657607f821691505b602082108103610b1957610b18610abf565b5b50919050565b60008190508160005260206000209050919050565b60006020601f8301049050919050565b600082821b905092915050565b600060088302610b817fffffffffffffffffffffffffffffffffffffffffffffffffffffffffffffffff82610b44565b610b8b8683610b44565b95508019841693508086168417925050509392505050565b6000819050919050565b6000610bc8610bc3610bbe8461097e565b610ba3565b61097e565b9050919050565b6000819050919050565b610be283610bad565b610bf6610bee82610bcf565b848454610b51565b825550505050565b600090565b610c0b610bfe565b610c16818484610bd9565b505050565b5b81811015610c3a57610c2f600082610c03565b600181019050610c1c565b5050565b601f821115610c7f57610c5081610b1f565b610c5984610b34565b81016020851015610c68578190505b610c7c610c7485610b34565b830182610c1b565b50505b505050565b600082821c905092915050565b6000610ca260001984600802610c84565b1980831691505092915050565b6000610cbb8383610c91565b9150826002028217905092915050565b610cd482610a1e565b67ffffffffffffffff811115610ced57610cec610794565b5b610cf78254610aee565b610d02828285610c3e565b600060209050601f831160018114610d355760008415610d23578287015190505b610d2d8582610caf565b865550610d95565b601f198416610d4386610b1f565b60005b82811015610d6b57848901518255600182019150602085019450602081019050610d46565b86831015610d885784890151610d84601f891682610c91565b8355505b6001600288020188555050505b505050505050565b7f54686520757365722068617320616c726561647920737562736372696265642060008201527f746f2074686520636f6e74726163740000000000000000000000000000000000602082015250565b6000610df9602f83610a29565b9150610e0482610d9d565b604082019050919050565b60006020820190508181036000830152610e2881610dec565b9050919050565b7f5468652075736572206973206e6f7420746865206f776e6572206f662074686560008201527f20636f6e74726163740000000000000000000000000000000000000000000000602082015250565b6000610e8b602983610a29565b9150610e9682610e2f565b604082019050919050565b60006020820190508181036000830152610eba81610e7e565b905091905056fea264697066735822122028eea111a92368855ed4027eba44b60649a9da4e75151c823f672ee0802cf2ec64736f6c63430008120033",
  "immutableReferences": {},
  "source": "// SPDX-License-Identifier: GPL-3.0\r\n\r\npragma solidity >=0.7.0 <0.9.0;\r\n\r\ncontract Subscription {\r\n\r\n    address private owner;\r\n    mapping (address => bool) public validContracts;\r\n    mapping (address => address[]) public subscriptions;\r\n    mapping (address => mapping(address => bool)) isSubscribed;\r\n    mapping (address => Log[]) public contractEvents;\r\n    \r\n    struct Contract {\r\n        address contractAddress;\r\n    }\r\n\r\n    struct Log {\r\n        string eventName;\r\n    }\r\n\r\n    modifier validContract(address contractAddress){\r\n        require(validContracts[contractAddress] == true, \"The contract is not within the network or invalid contract address\");\r\n        _;\r\n    }\r\n\r\n    modifier onlyOwner (address user){\r\n        require(user == owner, \"The user is not the owner of the contract\");\r\n        _;\r\n    }\r\n    \r\n    modifier notSubscribedYet(address user, address contractAddress){\r\n        require(isSubscribed[user][contractAddress] == false, \"The user has already subscribed to the contract\");\r\n        _;\r\n    }\r\n\r\n    constructor(){\r\n        owner = msg.sender;\r\n    }\r\n\r\n    function getOwner() public view returns(address) {\r\n        return owner;\r\n    }\r\n\r\n    function changeOwner(address newOwnerAddress) public onlyOwner(msg.sender){\r\n        owner = newOwnerAddress;\r\n    }\r\n\r\n    function subscribe(address contractAddress) public notSubscribedYet(msg.sender, contractAddress) payable{\r\n       //subscriptions[msg.sender].push(contractAddress);\r\n       isSubscribed[msg.sender][contractAddress] = true;\r\n    }\r\n\r\n    function addContract(address contractAddress) public onlyOwner(msg.sender){\r\n        validContracts[contractAddress] = true;\r\n    }\r\n    \r\n    function updateContractEvent(address contractAddress, string memory eventName) public{\r\n        contractEvents[contractAddress].push(Log(eventName));\r\n    }\r\n\r\n\r\n}",
  "sourcePath": "C:\\Users\\Jason\\Documents\\Assignments\\bcAssignment\\backend\\contracts\\4_SubscriptionContract.sol",
  "compiler": {
    "name": "solc",
    "version": "0.8.18+commit.87f61d96.Emscripten.clang"
  },
  "schemaVersion": "3.4.12",
  "updatedAt": "2023-05-09T06:23:01.497Z",
  "networkType": "ethereum",
  "devdoc": {
    "kind": "dev",
    "methods": {},
    "version": 1
  },
  "userdoc": {
    "kind": "user",
    "methods": {},
    "version": 1
  }
}