{
  "contractName": "SubscriptionManagement",
  "abi": [
    {
      "inputs": [],
      "stateMutability": "nonpayable",
      "type": "constructor"
    },
    {
      "anonymous": false,
      "inputs": [
        {
          "indexed": true,
          "internalType": "address",
          "name": "src",
          "type": "address"
        },
        {
          "indexed": true,
          "internalType": "address",
          "name": "subscribedContract",
          "type": "address"
        },
        {
          "indexed": false,
          "internalType": "string",
          "name": "eventSignature",
          "type": "string"
        }
      ],
      "name": "Subscribe",
      "type": "event"
    },
    {
      "inputs": [
        {
          "internalType": "address",
          "name": "",
          "type": "address"
        },
        {
          "internalType": "uint256",
          "name": "",
          "type": "uint256"
        }
      ],
      "name": "userSubscription",
      "outputs": [
        {
          "internalType": "address",
          "name": "contractAddress",
          "type": "address"
        },
        {
          "internalType": "string",
          "name": "eventSignature",
          "type": "string"
        },
        {
          "internalType": "string",
          "name": "provider",
          "type": "string"
        },
        {
          "internalType": "uint256",
          "name": "timestamp",
          "type": "uint256"
        }
      ],
      "stateMutability": "view",
      "type": "function",
      "constant": true
    },
    {
      "inputs": [
        {
          "internalType": "address",
          "name": "contractAddress",
          "type": "address"
        },
        {
          "internalType": "string",
          "name": "eventSignature",
          "type": "string"
        },
        {
          "internalType": "string",
          "name": "provider",
          "type": "string"
        }
      ],
      "name": "subscribe",
      "outputs": [],
      "stateMutability": "nonpayable",
      "type": "function"
    },
    {
      "inputs": [
        {
          "internalType": "address",
          "name": "userAddress",
          "type": "address"
        }
      ],
      "name": "getSubscribedContracts",
      "outputs": [
        {
          "components": [
            {
              "internalType": "address",
              "name": "contractAddress",
              "type": "address"
            },
            {
              "internalType": "string",
              "name": "eventSignature",
              "type": "string"
            },
            {
              "internalType": "string",
              "name": "provider",
              "type": "string"
            },
            {
              "internalType": "uint256",
              "name": "timestamp",
              "type": "uint256"
            }
          ],
          "internalType": "struct SubscriptionManagement.ContractEvent[]",
          "name": "",
          "type": "tuple[]"
        }
      ],
      "stateMutability": "view",
      "type": "function",
      "constant": true
    }
  ],
  "bytecode": "0x608060405234801561001057600080fd5b5033600160006101000a81548173ffffffffffffffffffffffffffffffffffffffff021916908373ffffffffffffffffffffffffffffffffffffffff16021790555061126b806100616000396000f3fe608060405234801561001057600080fd5b50600436106100415760003560e01c806320335709146100465780633ceaa104146100765780637e3999fd146100a9575b600080fd5b610060600480360381019061005b9190610944565b6100c5565b60405161006d9190610b55565b60405180910390f35b610090600480360381019061008b9190610ba3565b6102e6565b6040516100a09493929190610c4b565b60405180910390f35b6100c360048036038101906100be9190610dd3565b610463565b005b60606000808373ffffffffffffffffffffffffffffffffffffffff1673ffffffffffffffffffffffffffffffffffffffff168152602001908152602001600020805480602002602001604051908101604052809291908181526020016000905b828210156102db57838290600052602060002090600402016040518060800160405290816000820160009054906101000a900473ffffffffffffffffffffffffffffffffffffffff1673ffffffffffffffffffffffffffffffffffffffff1673ffffffffffffffffffffffffffffffffffffffff1681526020016001820180546101ae90610e8d565b80601f01602080910402602001604051908101604052809291908181526020018280546101da90610e8d565b80156102275780601f106101fc57610100808354040283529160200191610227565b820191906000526020600020905b81548152906001019060200180831161020a57829003601f168201915b5050505050815260200160028201805461024090610e8d565b80601f016020809104026020016040519081016040528092919081815260200182805461026c90610e8d565b80156102b95780601f1061028e576101008083540402835291602001916102b9565b820191906000526020600020905b81548152906001019060200180831161029c57829003601f168201915b5050505050815260200160038201548152505081526020019060010190610125565b505050509050919050565b6000602052816000526040600020818154811061030257600080fd5b9060005260206000209060040201600091509150508060000160009054906101000a900473ffffffffffffffffffffffffffffffffffffffff169080600101805461034c90610e8d565b80601f016020809104026020016040519081016040528092919081815260200182805461037890610e8d565b80156103c55780601f1061039a576101008083540402835291602001916103c5565b820191906000526020600020905b8154815290600101906020018083116103a857829003601f168201915b5050505050908060020180546103da90610e8d565b80601f016020809104026020016040519081016040528092919081815260200182805461040690610e8d565b80156104535780601f1061042857610100808354040283529160200191610453565b820191906000526020600020905b81548152906001019060200180831161043657829003601f168201915b5050505050908060030154905084565b82826000151561047383836105a3565b15151461047f57600080fd5b6000803373ffffffffffffffffffffffffffffffffffffffff1673ffffffffffffffffffffffffffffffffffffffff16815260200190815260200160002060405180608001604052808773ffffffffffffffffffffffffffffffffffffffff16815260200186815260200185815260200142815250908060018154018082558091505060019003906000526020600020906004020160009091909190915060008201518160000160006101000a81548173ffffffffffffffffffffffffffffffffffffffff021916908373ffffffffffffffffffffffffffffffffffffffff1602179055506020820151816001019081610579919061106a565b50604082015181600201908161058f919061106a565b506060820151816003015550505050505050565b6000806000803373ffffffffffffffffffffffffffffffffffffffff1673ffffffffffffffffffffffffffffffffffffffff168152602001908152602001600020805480602002602001604051908101604052809291908181526020016000905b828210156107ba57838290600052602060002090600402016040518060800160405290816000820160009054906101000a900473ffffffffffffffffffffffffffffffffffffffff1673ffffffffffffffffffffffffffffffffffffffff1673ffffffffffffffffffffffffffffffffffffffff16815260200160018201805461068d90610e8d565b80601f01602080910402602001604051908101604052809291908181526020018280546106b990610e8d565b80156107065780601f106106db57610100808354040283529160200191610706565b820191906000526020600020905b8154815290600101906020018083116106e957829003601f168201915b5050505050815260200160028201805461071f90610e8d565b80601f016020809104026020016040519081016040528092919081815260200182805461074b90610e8d565b80156107985780601f1061076d57610100808354040283529160200191610798565b820191906000526020600020905b81548152906001019060200180831161077b57829003601f168201915b5050505050815260200160038201548152505081526020019060010190610604565b50505050905060005b815181101561086c578473ffffffffffffffffffffffffffffffffffffffff168282815181106107f6576107f561113c565b5b60200260200101516000015173ffffffffffffffffffffffffffffffffffffffff1614801561084957506108488282815181106108365761083561113c565b5b60200260200101516020015185610879565b5b1561085957600192505050610873565b80806108649061119a565b9150506107c3565b5060009150505b92915050565b60008160405160200161088c919061121e565b60405160208183030381529060405280519060200120836040516020016108b3919061121e565b6040516020818303038152906040528051906020012014905092915050565b6000604051905090565b600080fd5b600080fd5b600073ffffffffffffffffffffffffffffffffffffffff82169050919050565b6000610911826108e6565b9050919050565b61092181610906565b811461092c57600080fd5b50565b60008135905061093e81610918565b92915050565b60006020828403121561095a576109596108dc565b5b60006109688482850161092f565b91505092915050565b600081519050919050565b600082825260208201905092915050565b6000819050602082019050919050565b6109a681610906565b82525050565b600081519050919050565b600082825260208201905092915050565b60005b838110156109e65780820151818401526020810190506109cb565b60008484015250505050565b6000601f19601f8301169050919050565b6000610a0e826109ac565b610a1881856109b7565b9350610a288185602086016109c8565b610a31816109f2565b840191505092915050565b6000819050919050565b610a4f81610a3c565b82525050565b6000608083016000830151610a6d600086018261099d565b5060208301518482036020860152610a858282610a03565b91505060408301518482036040860152610a9f8282610a03565b9150506060830151610ab46060860182610a46565b508091505092915050565b6000610acb8383610a55565b905092915050565b6000602082019050919050565b6000610aeb82610971565b610af5818561097c565b935083602082028501610b078561098d565b8060005b85811015610b435784840389528151610b248582610abf565b9450610b2f83610ad3565b925060208a01995050600181019050610b0b565b50829750879550505050505092915050565b60006020820190508181036000830152610b6f8184610ae0565b905092915050565b610b8081610a3c565b8114610b8b57600080fd5b50565b600081359050610b9d81610b77565b92915050565b60008060408385031215610bba57610bb96108dc565b5b6000610bc88582860161092f565b9250506020610bd985828601610b8e565b9150509250929050565b610bec81610906565b82525050565b600082825260208201905092915050565b6000610c0e826109ac565b610c188185610bf2565b9350610c288185602086016109c8565b610c31816109f2565b840191505092915050565b610c4581610a3c565b82525050565b6000608082019050610c606000830187610be3565b8181036020830152610c728186610c03565b90508181036040830152610c868185610c03565b9050610c956060830184610c3c565b95945050505050565b600080fd5b600080fd5b7f4e487b7100000000000000000000000000000000000000000000000000000000600052604160045260246000fd5b610ce0826109f2565b810181811067ffffffffffffffff82111715610cff57610cfe610ca8565b5b80604052505050565b6000610d126108d2565b9050610d1e8282610cd7565b919050565b600067ffffffffffffffff821115610d3e57610d3d610ca8565b5b610d47826109f2565b9050602081019050919050565b82818337600083830152505050565b6000610d76610d7184610d23565b610d08565b905082815260208101848484011115610d9257610d91610ca3565b5b610d9d848285610d54565b509392505050565b600082601f830112610dba57610db9610c9e565b5b8135610dca848260208601610d63565b91505092915050565b600080600060608486031215610dec57610deb6108dc565b5b6000610dfa8682870161092f565b935050602084013567ffffffffffffffff811115610e1b57610e1a6108e1565b5b610e2786828701610da5565b925050604084013567ffffffffffffffff811115610e4857610e476108e1565b5b610e5486828701610da5565b9150509250925092565b7f4e487b7100000000000000000000000000000000000000000000000000000000600052602260045260246000fd5b60006002820490506001821680610ea557607f821691505b602082108103610eb857610eb7610e5e565b5b50919050565b60008190508160005260206000209050919050565b60006020601f8301049050919050565b600082821b905092915050565b600060088302610f207fffffffffffffffffffffffffffffffffffffffffffffffffffffffffffffffff82610ee3565b610f2a8683610ee3565b95508019841693508086168417925050509392505050565b6000819050919050565b6000610f67610f62610f5d84610a3c565b610f42565b610a3c565b9050919050565b6000819050919050565b610f8183610f4c565b610f95610f8d82610f6e565b848454610ef0565b825550505050565b600090565b610faa610f9d565b610fb5818484610f78565b505050565b5b81811015610fd957610fce600082610fa2565b600181019050610fbb565b5050565b601f82111561101e57610fef81610ebe565b610ff884610ed3565b81016020851015611007578190505b61101b61101385610ed3565b830182610fba565b50505b505050565b600082821c905092915050565b600061104160001984600802611023565b1980831691505092915050565b600061105a8383611030565b9150826002028217905092915050565b611073826109ac565b67ffffffffffffffff81111561108c5761108b610ca8565b5b6110968254610e8d565b6110a1828285610fdd565b600060209050601f8311600181146110d457600084156110c2578287015190505b6110cc858261104e565b865550611134565b601f1984166110e286610ebe565b60005b8281101561110a578489015182556001820191506020850194506020810190506110e5565b868310156111275784890151611123601f891682611030565b8355505b6001600288020188555050505b505050505050565b7f4e487b7100000000000000000000000000000000000000000000000000000000600052603260045260246000fd5b7f4e487b7100000000000000000000000000000000000000000000000000000000600052601160045260246000fd5b60006111a582610a3c565b91507fffffffffffffffffffffffffffffffffffffffffffffffffffffffffffffffff82036111d7576111d661116b565b5b600182019050919050565b600081905092915050565b60006111f8826109ac565b61120281856111e2565b93506112128185602086016109c8565b80840191505092915050565b600061122a82846111ed565b91508190509291505056fea26469706673582212203f5d8fe4772a7e94dda05520f40549b6ec660cdd04e0299d4fa035c6fc8763a364736f6c63430008120033",
  "immutableReferences": {},
  "source": "// SPDX-License-Identifier: GPL-3.0\r\npragma solidity >=0.7.0 <0.9.0;\r\n\r\ncontract SubscriptionManagement {\r\n\r\n    mapping(address => ContractEvent[]) public userSubscription;\r\n    address owner;\r\n\r\n    event Subscribe(address indexed src, address indexed subscribedContract, string eventSignature);\r\n    \r\n    struct ContractEvent {\r\n        address contractAddress;\r\n        string eventSignature;\r\n        string provider;\r\n        uint256 timestamp;\r\n    }\r\n\r\n    modifier onlyOwner{\r\n        require(msg.sender == owner);\r\n        _;\r\n    }\r\n\r\n    modifier noDuplicateContractEvent(address contractAddress, string memory eventSignature){\r\n        require(checkDuplicate(contractAddress, eventSignature) == false);\r\n        _;\r\n    }\r\n\r\n    constructor(){\r\n        owner = msg.sender;\r\n    }\r\n\r\n    function checkDuplicate(address contractAddress, string memory eventSignature) view internal returns (bool){\r\n        ContractEvent[] memory events = userSubscription[msg.sender];\r\n        \r\n        for(uint i = 0; i < events.length; i++){\r\n            if(events[i].contractAddress == contractAddress && compare(events[i].eventSignature, eventSignature))\r\n                return true;\r\n        }\r\n\r\n        return false;\r\n    }\r\n\r\n    function compare(string memory str1, string memory str2) internal pure returns (bool) {\r\n        return keccak256(abi.encodePacked(str1)) == keccak256(abi.encodePacked(str2));\r\n    }\r\n\r\n    function subscribe(address contractAddress, string memory eventSignature, string memory provider) public noDuplicateContractEvent(contractAddress, eventSignature){\r\n        userSubscription[msg.sender].push(\r\n            ContractEvent(contractAddress, eventSignature, provider,block.timestamp)\r\n        );\r\n    }\r\n\r\n    function getSubscribedContracts(address userAddress) public view returns (ContractEvent [] memory){\r\n        return userSubscription[userAddress];\r\n    }\r\n\r\n}",
  "sourcePath": "C:\\Users\\Jason\\Documents\\Assignments\\bcAssignment\\backend\\contracts\\5_SubscriptionManagement.sol",
  "compiler": {
    "name": "solc",
    "version": "0.8.18+commit.87f61d96.Emscripten.clang"
  },
  "schemaVersion": "3.4.12",
  "updatedAt": "2023-05-09T06:23:01.533Z",
  "networkType": "ethereum",
  "devdoc": {
    "kind": "dev",
    "methods": {},
    "version": 1
  },
  "userdoc": {
    "kind": "user",
    "methods": {},
    "version": 1
  }
}